:020000003D2998
:0E0006000030831203138605063086040800BE
:0E0014000030831203138605093086040800AD
:10002200831203131F151F1D172814281E08F10021
:0E003200F00183161E08F0040030F1040800EF
:100040008030831203132506F0007F307002031DF9
:100050002B28A630240203183128A630A400FF3034
:10006000A5008030F000803025067002031D3A287C
:1000700024085A3C031840285A30A4000030A50038
:100080005A302407F30025080318013EF40003301A
:10009000F2007308F0007408F10072080319552883
:1000A000F00DF10D7010FF3E4E28F4307007F30094
:1000B00071080318013E013EF4007308F000740853
:1000C000F100F10CF00CF113711BF117F10CF00CB5
:1000D000F113711BF11770089500CF301705F5006B
:1000E00003307305F2007208F000F00D7010F00D8F
:1000F0007010F00D7010F00D7010700875049700FE
:020100000800F5
:080102008312031386010800BB
:10010A0083120313F101F20125087202031D8F28DD
:10011A00240871020318A328F301F40100307402C1
:10012A00031D99289B30730203189F28F30A0319A9
:0E013A00F40A9328F10A0319F20A8928080032
:0E01480000308312031386050630860408007B
:10015600112070088312A2007108A300013008055F
:10016600F1007108003A031DC028A4202C30A40019
:100176000130A50085208120AB2808300805F10054
:100186007108003A031DCF280A202C30A400013044
:10019600A50085208120AB2804300805F1007108F0
:1001A600003A031DDE280320F430A4000130A50028
:1001B60085208120AB2801302302031DE4282C3042
:1001C600220203180D294630A4000030A500202085
:1001D6000830FB009D30FC000530FD00FD0BF128CA
:1001E600FC0BF128FB0BF128000000001E30A400D8
:1001F6000030A50020200830FB009D30FC000530B3
:10020600FD00FD0B0429FC0B0429FB0B042900004F
:080216000000AB28AB28080032
:10021E004130831203139F00CE3083169F000800D7
:10022E0083160313860183128601831687018312B8
:10023E008701FF3083168800FF308312880001305B
:0A024E009F000E3083169F00080089
:100258008316031307118312971517159710171094
:1002680097121712121492141215F930831692006D
:0202780008007C
:0C027A002C2117210F21AB204029422924
:02400E004A2F37
:00000001FF
